:1000000000308A00C82A00000A108A100A118207EC
:1000100028340C34013406343D3084008313000846
:10002000031920280130F800F701F70B1528F80B09
:1000300014284A30F700F70B1B281E28800B1228C3
:100040000034440EF039F7000F30080577048800BB
:10005000000008142B28081000348810F030831694
:100060008800831208150000081400000808080E14
:100070000F39C40008100000081400000808080E1A
:100080000F39C30008100030831688008312440E15
:10009000F700F030F70577084304F8007808C3004C
:1000A000C31B2E28411C8810411888140000081119
:1000B00000000810420EC3000F30C3054308C400FF
:1000C000212042080F39C300C40021200034003031
:1000D0008316880083128810081108100F30BD00A5
:1000E0000C200130AF002F08033C031C7F28033095
:1000F000C40021200530BD000C20AF0A7328023057
:10010000C4002120AF012F08033C031C90282F08B6
:100110000420B000C1013008C2002D20AF0A83289E
:100120008A110A12E82A8E30F7003008F8002F08EA
:10013000F900FA01F808031DA7287908F800F90169
:100140000830F702F808031DA728F701AF280310AD
:10015000F81BAE28F90DF80DF703A728F8130034A3
:100160003C0803192029C400400803192029C407AA
:100170000318C1287F30C402031C20290319202939
:10018000C5288130C407031820294408F700F80166
:10019000F901FA013D08C800C8173E08C7003F082A
:1001A000C6001830C400C501461CEE284308FA07F3
:1001B000031CE028F90A031DE028F80A0319C517F3
:1001C0004208F907031CE728F80A0319C517410874
:1001D000BE00BE173E08F8070318C517C50DF80C7A
:1001E000F90CFA0CC80CC70CC60C0310C40BD328AE
:1001F0000130F70703182029F81B0529C80DFA0D4F
:10020000F90DF80DF70303192029C81F1629FA0A5A
:10021000031D1629F90A031D1629F80A031D1629BC
:10022000F80CF90CFA0CF70A031920293D08C5004F
:100230004108C506C51F1E29F8172429F8132429CB
:10024000F701F801F901FA0100343E0B28292B29A6
:100250004030BF002C29BF0101303D02BF073F08DD
:100260008038C000C1014008C2002D2000343C0885
:10027000B63CBC00FA013D08C000BD170310BD0C20
:10028000BE0CBF0CFA0CF90CF80CF70CBC0B3E2999
:10029000C01F5529F709F809F909FA09F70A0319DE
:1002A000F80A0319F90A0319FA0A8A110A12E72946
:1002B000F701F801F901FA01C401C501C601C7013E
:1002C0004308420441044004031996292030C80021
:1002D0000310BC0DBD0DBE0DBF0DC40DC50DC60D6B
:1002E000C70D43084702031D7F2942084602031D2C
:1002F0007F2941084502031D7F2940084402031C51
:1003000090294008C4024108031C410FC50242085D
:10031000031C420FC6024308031C430FC702031409
:10032000F70DF80DF90DFA0DC80B6829443084005B
:10033000831300343C080C3A0319A529063A031923
:10034000AD29023A0319B329B829C1010130C2000D
:100350002D200230BD000C20BE290130BD0002302E
:10036000BE002521BE29C1011030C2002D20BE29AA
:100370000130C1003C08C2002D20BE290034040811
:10038000B4003308B6000319DE293208BF00310873
:10039000BE003008BD002F08BC00C301C2012030E0
:1003A000C1008230C000B0207A08B2007908B100E4
:1003B0007808B0007708AF00B60BC5293208BF0037
:1003C0003108BE003008BD002F08BC0037297A086C
:1003D000B2007908B1007808B0007708AF00B21F0A
:1003E000FE29B403B416AF09B009B109B209AF0AC6
:1003F0000319B00A0319B10A0319B20A3B30BB0052
:100400009A30BA00CA30B900B8010A30B6003308D1
:100410000319B40A3208BF003108BE003008BD001D
:100420002F08BC003B08C3003A08C2003908C100CD
:100430003808C00058210008AF00840A0008B00046
:10044000840A0008B100840A0008B200FD30840765
:10045000F708031D3E2A330A360203193E2A3408E0
:100460000319402A0F3936020319382A0318702A53
:10047000B41B702A341B402A20306C2A2030B4056B
:10048000B41E4E2AB4123308031DB4037708B40017
:100490002D30BC009A213408F700B401330836022D
:1004A000031D5C2A7708B4002E30BC009A21340862
:1004B000F7002030B40500303030B41E6C2AB4127E
:1004C0003308031DB4037708B4002D30BC009A2113
:1004D0003408F700B4013030F7077708BC009A21E0
:1004E0003B08BF003A08BE003908BD003808BC0010
:1004F000C301C201C1010A30C00058217A08BB0003
:100500007908BA007808B9007708B800B60B0A2A4B
:1005100000343008B7003408B706B71F942A031117
:100520000310B01B0314C72A3008B7003308B80003
:100530002F08B8020319A22AB71FC72A0308013AD5
:100540008300C72A3408B8003008B8020319AE2A5D
:10055000B71FC72A0308013A8300C72A3508B80025
:100560003108B8020319BA2AB71FC72A0308013A8B
:100570008300C72A3608B8003208B8020319C62A11
:10058000B71FC72A0308013A8300C72A03100034A3
:10059000840183131F30830583161F149F141F15B6
:1005A0009F1107309C008312A001A101FF30A6001B
:1005B00083161F1383121F179F1783169F1783120B
:1005C0001F1483161F109F101F119F11831267287D
:1005D0008316061083120614831686108312861063
:1005E00000308316860083122611260883168700A2
:1005F000831207110C309700A61026088316870077
:10060000831287100C309D000030F80004389200EF
:10061000F93083169200061183120615831686118F
:1006200083128611E13095001708CF399700963074
:100630009B001D08CF399D000030F8001F08C73906
:1006400078049F001E30BD000C201F151F19262B9B
:100650001E08FA0083161E088312AF001E08B000A1
:1006600093207A08AA007908A9007808A8007708DA
:10067000A7002A08BF002908BE002808BD002708D7
:10068000BC002F30C300F930C2001F30C1007730EA
:10069000C000B0207A08AA007908A9007808A8004C
:1006A0007708A7000830F8001F08C73978049F00B2
:1006B0001E30BD000C201F151F195C2B1E08FA00F0
:1006C00083161E088312AF001E08B00093207A081C
:1006D000AE007908AD007808AC007708AB002E08B2
:1006E000BF002D08BE002C08BD002B08BC002F3019
:1006F000C300F930C2001F30C1007730C000B02005
:100700007A08AE007908AD007808AC007708AB0035
:100710000130BD00BE002521893084002A08B200C6
:100720002908B1002808B0002708AF000230B30044
:10073000BF210130BD000230BE0025218930840078
:100740002E08B2002D08B1002C08B0002B08AF0015
:100750000230B300BF216630B200B1004630B000B5
:100760008030AF002E08B6002D08B5002C08B4006C
:100770002B08B30089220318BF2B031DDA2B663028
:10078000B200B1004630B0008030AF002A08B60099
:100790002908B5002808B4002708B3008922031CE3
:1007A000DA2B8316061183120611831606128312A2
:1007B00006121C2C6630B200B1004630B00080300A
:1007C000AF002A08B6002908B5002808B400270899
:1007D000B30089220318EE2B031DF72B8316061195
:1007E000831206158316861183128611FB2B83163E
:1007F0000611831206116630B200B1004630B00017
:100800008030AF002E08B6002D08B5002C08B400CB
:100810002B08B300892203180F2C031D182C8316F4
:1008200006118312061183160612831206161C2C5B
:0C08300083160612831206121C2B6300B4
:02400E00713F00
:00000001FF
;PIC16F877A
