:1000000000308A00CC2B0000FF00030E8301A1000A
:100010000A08A0008A010408A2007708A300780853
:10002000A4007908A5007A08A6007B08A70083131E
:1000300083120B1E1D288B183028220884002308E9
:10004000F7002408F8002508F9002608FA00270818
:10005000FB0020088A00210E8300FF0E7F0E09009E
:100060008A110A12362B0A108A100A1182072834C4
:100070000C34013406340A108A100A1182075034F5
:1000800075346C3473346F3473343D3425344C34EC
:10009000643420340A3400340A108A100A118207AA
:1000A00044346934733474343D3425344C34663408
:1000B000203463346D340034B630F700FA01F901AE
:1000C000F8013A083B043C043D04031D6928F7018C
:1000D00076280310F81B7528BA0DBB0DBC0DBD0D9D
:1000E000FA0DF90DF80DF70B6928F8138A110A12A9
:1000F0006F2B48080319E928D0004C080319E92898
:10010000D00703188A287F30D002031CE92803197E
:10011000E9288E288130D0070318E9285008F70015
:10012000F801F901FA014908D400D4174A08D300AC
:100130004B08D2001830D000D101521CB7284F080C
:10014000FA07031CA928F90A031DA928F80A0319AC
:10015000D1174E08F907031CB028F80A0319D11764
:100160004D08CA00CA174A08F8070318D117D10D5D
:10017000F80CF90CFA0CD40CD30CD20C0310D00BE5
:100180009C280130F7070318E928F81BCE28D40D66
:10019000FA0DF90DF80DF7030319E928D41FDF282C
:1001A000FA0A031DDF28F90A031DDF28F80A031DD8
:1001B000DF28F80CF90CFA0CF70A0319E9284908AA
:1001C000D1004D08D106D11FE728F817ED28F81304
:1001D000ED28F701F801F901FA010034F030831637
:1001E0008800831208150000081400000808080E93
:1001F0000F39D00008100000081400000808080E8D
:100200000F39CF0008100030831688008312500E7B
:10021000F700F030F70577084F04F8000034500E6F
:10022000F039F7000F300805770488000000081443
:100230001929081000348810EE207808CF00CF1B51
:100240001C294D1C88104D1888140000081100004E
:1002500008104E0ECF000F30CF054F08D0000F21F1
:100260004E080F39CF00D0000F2100344A0B392936
:100270003C294030CB003D29CB0101304902CB075E
:100280004B088038CC00CD014C08CE001B21003437
:10029000493084008313000803195C290130F800F9
:1002A000F701F70B5129F80B50294A30F700F70BEB
:1002B00057295A29800B4E29003448080C3A031953
:1002C0006829063A03197029023A031976297B290D
:1002D000CD010130CE001B210230C9004821812907
:1002E0000130C9000230CA0036218129CD01103009
:1002F000CE001B2181290130CD004808CE001B21F2
:1003000081290034F701F801F901FA01D001D10186
:10031000D201D3014F084E044D044C040319C029E7
:100320002030D4000310C80DC90DCA0DCB0DD00D5F
:10033000D10DD20DD30D4F085302031DA9294E082C
:100340005202031DA9294D085102031DA9294C0879
:100350005002031CBA294C08D0024D08031C4D0F53
:10036000D1024E08031C4E0FD2024F08031C4F0F40
:10037000D3020314F70DF80DF90DFA0DD40B9229E1
:1003800050308400831300340408BF00BE1FD529F9
:10039000BF03BF16BB09BC09BD09BE09BB0A0319CF
:1003A000BC0A0319BD0A0319BE0A3B30C6009A30C5
:1003B000C500CA30C400C3010A30C1003E08CB00EA
:1003C0003D08CA003C08C9003B08C8004608CF00E9
:1003D0004508CE004408CD004308CC008221000827
:1003E000BB00840A0008BC00840A0008BD00840A1F
:1003F0000008BE00F708031D102A4108013A03193E
:10040000102A3F080319122A0F39410203190A2A38
:1004100003182E2ABF1B2E2A3F1B122A20302A2AFD
:100420002030BF05BF1E1D2ABF127708BF002D3028
:10043000C8005D213F08F700BF013030BF1E2A2AE7
:10044000BF127708BF002D30C8005D213F08F700BC
:10045000BF013030F7077708C8005D214608CB00A0
:100460004508CA004408C9004308C800CF01CE01AE
:10047000CD010A30CC0082217A08C6007908C50077
:100480007808C4007708C300C10BDE298A110A125C
:10049000A12B4808B63CC800FA014908CC00C9178E
:1004A0000310C90CCA0CCB0CFA0CF90CF80CF70CA5
:1004B000C80B502ACC1F672AF709F809F909FA096D
:1004C000F70A0319F80A0319F90A0319FA0A8A1133
:1004D0000A12922A0408C0003F08C2000319892AA0
:1004E0003E08CB003D08CA003C08C9003B08C800D4
:1004F000CF01CE012030CD008230CC0079207A08A7
:10050000BE007908BD007808BC007708BB00C20BAC
:10051000702A3E08CB003D08CA003C08C9003B08D1
:10052000C800492A7A08BE007908BD007808BC00D6
:100530007708BB00BE1FA92AC003C016BB09BC09AF
:10054000BD09BE09BB0A0319BC0A0319BD0A031978
:10055000BE0A3B30C7009A30C600CA30C500C4018D
:100560000A30C2003F080319C00A3E08CB003D080C
:10057000CA003C08C9003B08C8004708CF0046082D
:10058000CE004508CD004408CC0082210008BB0005
:10059000840A0008BC00840A0008BD00840A000820
:1005A000BE00FD308407F708031DE92A3F0A420216
:1005B0000319E92A40080319EB2A0F3942020319EB
:1005C000E32A03181B2BC01B1B2B401BEB2A2030DC
:1005D000172B2030C005C01EF92AC0123F08031D8A
:1005E000C0037708C0002D30C8005D214008F70027
:1005F000C0013F084202031D072B7708C0002E30C0
:10060000C8005D214008F7002030C00500303030C0
:10061000C01E172BC0123F08031DC0037708C0007F
:100620002D30C8005D214008F700C0013030F707C9
:100630007708C8005D214708CB004608CA00450876
:10064000C9004408C800CF01CE01CD010A30CC005A
:1006500082217A08C7007908C6007808C5007708A3
:10066000C400C20BB52A8A110A12BF2B003006182B
:100670000130BB000030861C01303B0503194E2BB6
:100680000130AB07003003180130AC07003003180D
:100690000130AD07003003180130AE0700300618F6
:1006A0000130BB000030861801303B050319662B72
:1006B0000130AB020030031C0130AC020030031CDF
:1006C0000130AD020030031C0130AE022E08BD0027
:1006D0002D08BC002C08BB002B08BA005C287A0847
:1006E000CB007908CA007808C9007708C8006630CE
:1006F000CF00CE002630CD007E30CC0079207A08A5
:10070000B2007908B1007808B0007708AF00013076
:10071000C900CA003621BA013A083B20BA0AF700DC
:10072000C8005D2107303A02031D8C2B4130840044
:100730002E08BE002D08BD002C08BC002B08BB00F5
:10074000C4292030C8005D210A30C8005D21BA01EB
:100750003A084C20BA0AF700C8005D2105303A0279
:10076000031DA82B893084003208BE003108BD006B
:100770003008BC002F08BB000230BF006A2A2030BE
:10078000C8005D216330C8005D216D30C8005D2167
:100790008B108A110A121D28840183131F308305D0
:1007A00083161F149F141F159F1107309C0083127E
:1007B000A901AA01AE01AD01AC01AB010130831664
:1007C0008600811383120B1683160117C030831223
:1007D0008B040030831688008312881008110810DB
:1007E000A8018B1BA8178B130F30C9004821A81B29
:1007F0008B170130B3003308033C031C132CA801F2
:100800008B1BA8178B130330D0000F21A81B8B174D
:10081000A8018B1BA8178B130530C9004821A81B02
:100820008B17B30AFB2BA8018B1BA8178B13023065
:10083000D0000F21A81B8B17B3013308033C031C06
:10084000302C33083320B400A8018B1BA8178B135E
:10085000CD013408CE001B21A81B8B17B30A1D2C19
:04086000302C6300D5
:02400E00713F00
:00000001FF
;PIC16F877A
