:1000000000308A00542B0000FF00030E8301A10082
:100010000A08A0008A010408A2007708A300780853
:10002000A4007908A5007A08A6007B08A70083131E
:1000300083120B1E1D288B1834288B1E21280B19A8
:100040003728220884002308F7002408F800250830
:10005000F9002608FA002708FB0020088A00210E74
:100060008300FF0E7F0E09008A110A12F4288A11FC
:100070000A12DF2A0A108A100A11820728340C3467
:10008000013406340A108A100A118207503475347C
:100090006C3473346F3473343D3425344C346434ED
:1000A00020340A3400340A108A100A1182075634A8
:1000B0003D3425344C346434203463346D342F346F
:1000C0007334653467340034B630F700FA01F9014F
:1000D000F8014308440445044604031D7128F70150
:1000E0007E280310F81B7D28C30DC40DC50DC60D59
:1000F000FA0DF90DF80DF70B7128F81300344308C9
:100100000319EF28CB0047080319EF28CB07031882
:1001100090287F30CB02031CEF280319EF28942886
:100120008130CB070318EF284B08F700F801F901DD
:10013000FA014408CF00CF174508CE004608CD008D
:100140001830CB00CC014D1CBD284A08FA07031C0F
:10015000AF28F90A031DAF28F80A0319CC1749087C
:10016000F907031CB628F80A0319CC174808C5007C
:10017000C5174508F8070318CC17CC0DF80CF90C77
:10018000FA0CCF0CCE0CCD0C0310CB0BA2280130F7
:10019000F7070318EF28F81BD428CF0DFA0DF90D37
:1001A000F80DF7030319EF28CF1FE528FA0A031DFE
:1001B000E528F90A031DE528F80A031DE528F80CCF
:1001C000F90CFA0CF70A0319EF284408CC00480888
:1001D000CC06CC1FED28F817F328F813F328F70105
:1001E000F801F901FA010034003006180130C400AA
:1001F0000030861C0130440503191A290130AB0771
:10020000003003180130AC07003003180130AD078F
:10021000003003180130AE070130B3070030031877
:100220000130B407003003180130B507003003185F
:100230000130B607003006180130C40000308618BF
:1002400001304405031940290130AB020030031C82
:100250000130AC020030031C0130AD020030031C41
:100260000130AE020130B307003003180130B4078B
:10027000003003180130B507003003180130B6070D
:100280002E08C6002D08C5002C08C4002B08C3008A
:1002900064207A08C6007908C5007808C400770889
:1002A000C3006630CA00C9002630C8007E30C700CF
:1002B0007F207A08BA007908B9007808B800770872
:1002C000B7008B108A110A1221284308B63CC300DC
:1002D000FA014408C700C4170310C40CC50CC60CAF
:1002E000FA0CF90CF80CF70CC30B6C29C71F832907
:1002F000F709F809F909FA09F70A0319F80A0319BD
:10030000F90A0319FA0A8A110A12052BF03083162A
:100310008800831208150000081400000808080E61
:100320000F39D80008100000081400000808080E53
:100330000F39D70008100030831688008312580E3A
:10034000F700F030F70577085704F8000034580E2E
:10035000F039F7000F300805770488000000081412
:10036000B12908100034881086217808D700D71BDF
:10037000B429551C88105518881400000811000075
:100380000810560ED7000F30D7055708D800A72100
:1003900056080F39D700D800A7210034520BD129B5
:1003A000D4294030D300D529D30101305102D307DD
:1003B00053088038D400D5015408D600B321003446
:1003C00051308400831300080319F4290130F80028
:1003D000F701F70BE929F80BE8294A30F700F70B8A
:1003E000EF29F229800BE629003450080C3A031952
:1003F000002A063A0319082A023A03190E2A132A78
:10040000D5010130D600B3210230D100E021192AF4
:100410000130D1000230D200CE21192AD50110308E
:10042000D600B321192A0130D5005008D600B321D7
:10043000192A0034F701F801F901FA01D801D901AC
:10044000DA01DB0157085604550454040319582AED
:100450002030DC000310D00DD10DD20DD30DD80DFE
:10046000D90DDA0DDB0D57085B02031D412A560832
:100470005A02031D412A55085902031D412A5408F6
:100480005802031C522A5408D8025508031C550F61
:10049000D9025608031C560FDA025708031C570FDF
:1004A000DB020314F70DF80DF90DFA0DDC0B2A2A07
:1004B00058308400831300340408C800C71F6D2A15
:1004C000C803C816C409C509C609C709C40A03195F
:1004D000C50A0319C60A0319C70A3B30CF009A3070
:1004E000CE00CA30CD00CC010A30CA004708D30084
:1004F0004608D2004508D1004408D0004F08D70074
:100500004E08D6004D08D5004C08D4001A22000829
:10051000C400840A0008C500840A0008C600840AD2
:100520000008C700F708031DA82A4A08013A031962
:10053000A82A48080319AA2A0F394A020319A22A2D
:100540000318C62AC81BC62A481BAA2A2030C22A5A
:100550002030C805C81EB52AC8127708C8002D303B
:10056000D000F5214808F700C8013030C81EC22A63
:10057000C8127708C8002D30D000F5214808F700D0
:10058000C8013030F7077708D000F5214F08D300B5
:100590004E08D2004D08D1004C08D000D701D6013A
:1005A000D5010A30D4001A227A08CF007908CE008B
:1005B0007808CD007708CC00CA0B762A00340630C4
:1005C0008100BB0B502B3608C6003508C500340827
:1005D000C4003308C30064207A08C6007908C50047
:1005E0007808C4007708C3006630CA00C900263006
:1005F000C8007E30C7007F207A08C6007908C50091
:100600007808C4007708C30065297A08B200790821
:10061000B1007808B0007708AF000130D100D200F7
:10062000CE21C30143084220C30AF700D000F521C0
:1006300007304302031D122B413084002E08C700EF
:100640002D08C6002C08C5002B08C4005C222030F1
:10065000D000F5210A30D000F5215630D000F52128
:100660003D30D000F521413084003208C700310808
:10067000C6003008C5002F08C4005C220530C30046
:1006800043085320C30AF700D000F5210C30430281
:10069000031D402BB601B501B401B301FA30BB0014
:1006A0000B118A110A122128840183131F3083053C
:1006B00083161F149F141F159F1107309C0083126F
:1006C000A901AA01FA30BB00AE01AD01AC01AB013A
:1006D000013083168600811383120B1683160117CF
:1006E0000330F700F71D7F2B073083128101813023
:1006F000840083130008C0390F388000831664001B
:10070000813084000008C0397704800006308312ED
:1007100081008B16C0308B04003083168800831252
:10072000881008110810A8018B1BA8178B130F3015
:10073000D100E021A81B8B170130BC003C08033C12
:10074000031CB62BA8018B1BA8178B130330D800F2
:10075000A721A81B8B17A8018B1BA8178B1305308B
:10076000D100E021A81B8B17BC0A9E2BA8018B1B74
:10077000A8178B130230D800A721A81B8B17BC0128
:100780003C08033C031CD32B3C083A20BD00A801C5
:100790008B1BA8178B13D5013D08D600B321A81BCE
:0A07A0008B17BC0AC02BD32B63009B
:02400E00713F00
:00000001FF
;PIC16F877A
