:1000000000308A00202B0000FF00030E8301A100B6
:100010000A08A0008A010408A2007708A300780853
:10002000A4007908A5007A08A6007B08A70083131E
:1000300083120B1E1D288B183028220884002308E9
:10004000F7002408F8002508F9002608FA00270818
:10005000FB0020088A00210E8300FF0E7F0E09009E
:100060008A110A12842A0A108A100A118207283477
:100070000C34013406340A108A100A1182075034F5
:1000800075346C3473346F3473343D3425344C34EC
:10009000643420340A3400340A108A100A118207AA
:1000A000443469347334743461346E346334693481
:1000B00061343D3425344C3464340034F701F801A4
:1000C000F901FA01CD01CE01CF01D0014C084B045A
:1000D0004A04490403199C282030D1000310C50D9F
:1000E000C60DC70DC80DCD0DCE0DCF0DD00D4C08D2
:1000F0005002031D85284B084F02031D85284A081E
:100100004E02031D852849084D02031C9628490804
:10011000CD024A08031C4A0FCE024B08031C4B0FAA
:10012000CF024C08031C4C0FD0020314F70DF80D3E
:10013000F90DFA0DD10B6E284D3084008313003475
:100140002030C800C401C501C601C7013F08FA003C
:100150003E08F9003D08F8003C08F7000310771C42
:10016000BF284008C40741080318410FC5074208CB
:100170000318420FC60743080318430FC707C70CED
:10018000C60CC50CC40CFA0CF90CF80CF70CC80B17
:10019000AE288A110A12C12AB630F700FA01F90115
:1001A000F80139083A043B043C04031DD928F7013F
:1001B000E6280310F81BE528B90DBA0DBB0DBC0DE0
:1001C000FA0DF90DF80DF70BD928F8138A110A1258
:1001D000CA2AF0308316880083120815000008141C
:1001E00000000808080E0F39CD00081000000814A0
:1001F00000000808080E0F39CC00081000308316E4
:10020000880083124D0EF700F030F70577084C0494
:10021000F80000344D0EF039F7000F300805770470
:100220008800000008141429081000348810E92000
:100230007808CC00CC1B17294A1C88104A1888144F
:1002400000000811000008104B0ECC000F30CC0548
:100250004C08CD000A214B080F39CC00CD000A21F3
:100260000034470B342937294030C8003829C801E9
:1002700001304602C80748088038C900CA01490849
:10028000CB00162100344630840083130008031984
:1002900057290130F800F701F70B4C29F80B4B29CF
:1002A0004A30F700F70B52295529800B49290034B1
:1002B00045080C3A03196329063A03196B29023AD7
:1002C000031971297629CA010130CB0016210230A9
:1002D000C60043217C290130C6000230C70031210D
:1002E0007C29CA011030CB0016217C290130CA00BC
:1002F0004508CB0016217C2900340408BD00BC1F32
:100300008E29BD03BD16B909BA09BB09BC09B90AD2
:100310000319BA0A0319BB0A0319BC0A3B30C4000B
:100320009A30C300CA30C200C1010A30BF003C0885
:10033000C8003B08C7003A08C6003908C500440891
:10034000CC004308CB004208CA004108C9005E2027
:100350000008B900840A0008BA00840A0008BB003B
:10036000840A0008BC00F708031DC9293F08013AA8
:100370000319C9293D080319CB290F393F02031975
:10038000C3290318E729BD1BE7293D1BCB292030D2
:10039000E3292030BD05BD1ED629BD127708BD005A
:1003A0002D30C50058213D08F700BD013030BD1E7D
:1003B000E329BD127708BD002D30C50058213D0846
:1003C000F700BD013030F7077708C5005821440811
:1003D000C8004308C7004208C6004108C500CC0158
:1003E000CB01CA010A30C9005E207A08C40079082E
:1003F000C3007808C2007708C100BF0B97298A1193
:100400000A12042BC1010408C0004110831B4114CF
:10041000BA1F122AC017401EC00AB909BA09B90A80
:100420000319BA0A3A0EF038BC00BC07E23EBD0020
:10043000323EBF003A080F39BD07BD07BF07E93E8E
:10044000BE00BE07BE07390E0F39BE07BF07BE0D7F
:10045000BF0DBF09BF0D39080F39BF07BC0D0730ED
:10046000BB000A30BF07BE03031C322ABE07BD0310
:10047000031C362ABD07BC03031C3A2ABC07BB0376
:10048000031C3E2A3B308400831307304005401391
:1004900084034005031D532A401A840A401A532A34
:1004A0002030F700702A84073F30040203194017F8
:1004B0000008F700031D642A401B642A401A7E2AA4
:1004C000C019642A20306F2AC01F6C2A2D30F70013
:1004D00084034013C013702AC01540123030F70750
:1004E000BA010408B9003A10831B3A147708C50012
:1004F00058213908840083133A188317840A401F4F
:10050000542A8A110A121C2B003006180130B90037
:100510000030861C013039050319D22A0130A907A1
:10052000003003180130AA07003003180130AB0770
:10053000003003180130AC072C08C8002B08C70096
:100540002A08C6002908C500CC01CB010230CA0028
:10055000D030C9005E207A08BB007908BA0078085C
:10056000B9007708B8007A08BF007908BE0078089B
:10057000BD007708BC00C301C201C1010530C00045
:10058000A0287A08BC007908BB007808BA00770870
:10059000B900CC287A08B0007908AF007808AE001E
:1005A0007708AD00003006180130B9000030861819
:1005B000013039050319EA2A0130A9020030031C71
:1005C0000130AA020030031C0130AB020030031CD2
:1005D0000130AC020130C600C7003121B801380833
:1005E0003B20B80AF700C500582107303802031D28
:1005F000EF2A413084002C08BC002B08BB002A08DD
:10060000BA002908B9007D292030C50058210A30D8
:10061000C5005821B80138084C20B80AF700C500B9
:1006200058210A303802031D0B2B103084002E088D
:10063000BA002D08B900022A8B108A110A121D284F
:10064000840183131F30830583161F149F141F1505
:100650009F1107309C008312AC01AB01AA01A901D4
:10066000013083168600811383120B16831601173F
:10067000C03083128B0400308316880083128810E8
:1006800008110810A8018B1BA8178B130F30C60088
:100690004321A81B8B170130B1003108033C031C18
:1006A000652BA8018B1BA8178B130330CD000A21E3
:1006B000A81B8B17A8018B1BA8178B130530C6002E
:1006C0004321A81B8B17B10A4D2BA8018B1BA81720
:1006D0008B130230CD000A21A81B8B17B101310802
:1006E000033C031C822B31083320B200A8018B1B72
:1006F000A8178B13CA013208CB001621A81B8B1731
:08070000B10A6F2B822B63008C
:02400E00713F00
:00000001FF
;PIC16F877A
