:1000000000308A00F7290000FF00030E8301A100E1
:100010000A08A0008A010408A2007708A300780853
:10002000A4007908A5007A08A6007B08A70083131E
:1000300083120B1E1D288B183028220884002308E9
:10004000F7002408F8002508F9002608FA00270818
:10005000FB0020088A00210E8300FF0E7F0E09009E
:100060008A110A12A9290A108A100A118207283453
:100070000C34013406340A108A100A1182075034F5
:1000800075346C3473346F3473343D3425344C34EC
:1000900064340034F03083168800831208150000A1
:1000A000081400000808080E0F39C90008100000E5
:1000B00008145A285B2800000808080E0F39C800E9
:1000C00008100030831688008312490EF700F030C4
:1000D000F70577084804F8000034490EF039F700B6
:1000E0000F30080577048800000008140330F7007B
:1000F000F70B78280810003488104A207808C800C8
:10010000C81B7D28461C881046188814000008115A
:1001100000000810470EC8000F30C8054808C90085
:100120006D2047080F39C800C9006D200034430B0B
:100130009A289D284030C4009E28C4010130420204
:10014000C40744088038C500C6014508C7007C20A4
:10015000003442308400831300080319BC280630A1
:10016000F800F701F70BB228F80BB1287B30F70045
:10017000F70BB828800BAF28003441080C3A03195C
:10018000C828063A0319D028023A0319D628DB28D2
:10019000C6010130C7007C200230C200A920E1283E
:1001A0000130C2000230C3009720E128C6011030A0
:1001B000C7007C20E1280130C6004108C7007C2030
:1001C000E1280034F701F801F901FA01C901CA0177
:1001D000CB01CC01480847044604450403192029F3
:1001E0002030CD000310C10DC20DC30DC40DC90DCB
:1001F000CA0DCB0DCC0D48084C02031D0929470838
:100200004B02031D092946084A02031D0929450816
:100210004902031C1A294508C9024608031C460F57
:10022000CA024708031C470FCB024808031C480FAB
:10023000CC020314F70DF80DF90DFA0DCD0BF228D1
:1002400049308400831300340408B900B81F3529ED
:10025000B903B916B509B609B709B809B50A03193A
:10026000B60A0319B70A0319B80A3B30C0009A301E
:10027000BF00CA30BE00BD010A30BB003808C40050
:100280003708C3003608C2003508C1004008C8005E
:100290003F08C7003E08C6003D08C500E220000830
:1002A000B500840A0008B600840A0008B700840A72
:1002B0000008B800F708031D70293B08013A03192C
:1002C00070293908031972290F393B0203196A2969
:1002D00003188E29B91B8E29391B722920308A29CF
:1002E0002030B905B91E7D29B9127708B9002D3023
:1002F000C100BD203908F700B9013030B91E8A2984
:10030000B9127708B9002D30C100BD203908F700B7
:10031000B9013030F7077708C100BD204008C4009C
:100320003F08C3003E08C2003D08C100C801C70124
:10033000C6010A30C500E2207A08C0007908BF0073
:100340007808BE007708BD00BB0B3E298A110A124F
:10035000F329003006180130B5000030861C01304A
:1003600035050319C1290130A907003003180130F0
:10037000AA07003003180130AB0700300318013022
:10038000AC07003006180130B50000308618013087
:1003900035050319D9290130A9020030031C0130A9
:1003A000AA020030031C0130AB020030031C0130F4
:1003B000AC020130C200C3009720B40134083B20D6
:1003C000B40AF700C100BD2007303402031DDE2946
:1003D000413084002C08B8002B08B7002A08B6006A
:1003E0002908B50024298B108A110A121D288401BE
:1003F00083131F30830583161F149F141F159F112D
:1004000007309C008312AC01AB01AA01A9010130A5
:1004100083168600811383120B1683160117C030D2
:1004200083128B0400308316880083128810081111
:100430000810A8018B1BA8178B130F30C200A9202E
:10044000A81B8B170130AD002D08033C031C3C2A70
:10045000A8018B1BA8178B130330C9006D20A81BA4
:100460008B17A8018B1BA8178B130530C200A9207E
:10047000A81B8B17AD0A242AA8018B1BA8178B1366
:100480000230C9006D20A81B8B17AD012D08033C5D
:10049000031C592A2D083320AE00A8018B1BA81776
:1004A0008B13C6012E08C7007C20A81B8B17AD0A32
:0604B000462A592A6300F0
:02400E00713F00
:00000001FF
;PIC16F877A
