:1000000000308A003F280000FF00030E8301A1009A
:100010000A08A0008A010408A2007708A300780853
:10002000A4007908A5007A08A6007B08A70083131E
:1000300083128B1E1D280B193028220884002308E8
:10004000F7002408F8002508F9002608FA00270818
:10005000FB0020088A00210E8300FF0E7F0E09009E
:100060008A110A12332806308100A80B3B28013080
:100070008506FA30A8000B118A110A121D28840186
:1000800083131F30830583161F149F141F159F11A0
:1000900007309C00FA308312A800FE3083168500DA
:1000A000831205100330F700F71D5F280730810128
:1000B0008130840083130008C0390F388000640049
:1000C000813084000008C039770480000630810048
:0A00D000C0308B048B166B28630010
:02400E00713F00
:00000001FF
;PIC16F877A
