:1000000000308A0075280000243084008313000823
:10001000031918280130F800F701F70B0D28F80B29
:100020000C284A30F700F70B13281628800B0A28F3
:1000300000348E30F7002508F8002408F900FA0192
:10004000F808031D2D287908F800F9010830F70297
:10005000F808031D2D28F70135280310F81B342854
:10006000F90DF80DF7032D28F81300342508AC001E
:100070002908AC06AC1F412803110310A51B03146B
:1000800074282508AC002808AD002408AD02031927
:100090004F28AC1F74280308013A830074282908EC
:1000A000AD002508AD0203195B28AC1F74280308B6
:1000B000013A830074282A08AD002608AD0203190E
:1000C0006728AC1F74280308013A830074282B08A2
:1000D000AD002708AD0203197328AC1F742803086C
:1000E000013A8300742803100034840183131F3005
:1000F000830583161F149F141F159F1107309C0042
:100100001F1383121F179F1783169F1783121F1425
:1001100083161F109F101F119F110030F8008312CB
:100120001F08C73978049F000A30A40004201F1557
:100130001F1998281E08FA0083161E088312A400AF
:100140001E08A50019207A08A3007908A2007808E3
:10015000A1007708A0000A30A4000420A701A6018E
:100160004830A5008430A4002308AB002208AA0070
:100170002108A9002008A8003620031CC4288316E3
:10018000081083120814C828831608108312081058
:100190000830F8001F08C73978049F000A30A4000F
:1001A00004201F151F19D2281E08FA0083161E08E6
:1001B0008312A4001E08A50019207A08A30079085C
:1001C000A2007808A1007708A0000A30A40004204B
:1001D000A701A6014830A5008430A4002308AB0085
:1001E0002208AA002108A9002008A8003620031C24
:1001F000FE2883168810831288140229831688101B
:10020000831288100A30A400042083168D2863000E
:02400E00713F00
:00000001FF
;PIC16F877A
