:1000000000308A002C2D0000FF00030E8301A100A8
:100010000A08A0008A010408A2007708A300780853
:10002000A4007908A5007A08A6007B08A70083131E
:1000300083128B1D1D280B183E280B1E21288B18A0
:1000400041288C308400801E27288C1A44288B1E5F
:100050002B280B194728220884002308F7002408BE
:10006000F8002508F9002608FA002708FB002008F8
:100070008A00210E8300FF0E7F0E09008A110A12EA
:10008000A62A8A110A12BA2A8A110A12702A8A1119
:100090000A121F2C60080319BA28E8006408031923
:1000A000BA28E80703185B287F30E802031CBA2847
:1000B0000319BA285F288130E8070318BA286808AE
:1000C000F700F801F901FA016108EC00EC17620889
:1000D000EB006308EA001830E800E9016A1C882890
:1000E0006708FA07031C7A28F90A031D7A28F80A18
:1000F0000319E9176608F907031C8128F80A031990
:10010000E9176508E200E2176208F8070318E91723
:10011000E90DF80CF90CFA0CEC0CEB0CEA0C0310E2
:10012000E80B6D280130F7070318BA28F81B9F2841
:10013000EC0DFA0DF90DF80DF7030319BA28EC1FB1
:10014000B028FA0A031DB028F90A031DB028F80ADE
:10015000031DB028F80CF90CFA0CF70A0319BA2899
:100160006108E9006508E906E91FB828F817BE2804
:10017000F813BE28F701F801F901FA01003460080C
:10018000B63CE000FA016108E400E1170310E10C5D
:10019000E20CE30CFA0CF90CF80CF70CE00BC62897
:1001A000E41FDD28F709F809F909FA09F70A031924
:1001B000F80A0319F90A0319FA0A8A110A124A29D4
:1001C000F701F801F901FA01E801E901EA01EB019F
:1001D000670866046504640403191E292030EC00D6
:1001E0000310E00DE10DE20DE30DE80DE90DEA0D60
:1001F000EB0D67086B02031D072966086A02031DE1
:10020000072965086902031D072964086802031CA1
:1002100018296408E8026508031C650FE9026608EE
:10022000031C660FEA026708031C670FEB02031446
:10023000F70DF80DF90DFA0DEC0BF028683084007D
:10024000831300340408D8005708DA000319412941
:100250005608E3005508E2005408E1005308E000A6
:10026000E701E6012030E5008230E4004A207A0808
:10027000D6007908D5007808D4007708D300DA0BC7
:1002800028295608E3005508E2005408E100530805
:10029000E000BF287A08D6007908D5007808D40095
:1002A0007708D300D61F6129D803D816D309D409FB
:1002B000D509D609D30A0319D40A0319D50A031993
:1002C000D60A3B30DF009A30DE00CA30DD00DC01A8
:1002D0000A30DA0057080319D80A5608E30055080F
:1002E000E2005408E1005308E0005F08E7005E0800
:1002F000E6005D08E5005C08E400E0200008D300AB
:10030000840A0008D400840A0008D500840A000882
:10031000D600FD308407F708031DA129570A5A02A9
:100320000319A12958080319A3290F395A020319DF
:100330009B290318D729D81BD729581BA32920305C
:10034000D2292030D805D81EB229D8125708031D4B
:10035000D8037708D8002D300C1EAC299900580816
:10036000F700D80157085A02031DC1297708D800A1
:100370002E300C1EB92999005808F7002030D805F6
:1003800000303030D81ED229D8125708031DD803A8
:100390007708D8002D300C1ECB2999005808F7009B
:1003A000D8013030F70777080C1ED42999005F0870
:1003B000E3005E08E2005D08E1005C08E000E701A0
:1003C000E601E5010A30E400E0207A08DF00790860
:1003D000DE007808DD007708DC00DA0B6D290034D8
:1003E0005A08F80159020318F8295908F700042A95
:1003F000F7010830DB00D90DF70D5A087702031812
:10040000F700F80DDB0BFB2900342030541E303090
:10041000D5005308F700D31F142AF709F70A770805
:10042000D3002D30D500D4175308D9006430DA003A
:10043000F0217708D30030307807D6005308D90070
:100440000A30DA00F02130307707D80030307807F2
:10045000D7005508F700D41D2F2AD41F5411541A61
:100460003C2AD41F572A5419572A7708D600D41883
:10047000572A7708D700572A30305602031D572ACB
:100480007708D6002030D500D41D4A2A5411D41440
:10049000D41FD41030305702031D572A7708D700D5
:1004A0002030D600D41D4A2AD410D41F5410541D15
:1004B0005D2A55080C1E5A2A9900D41C632A560836
:1004C0000C1E602A9900541C692A57080C1E662AC3
:1004D000990058080C1E6A2A99008A110A12912A5A
:1004E0008C1E772A8C1E722A1A08C800702A4808A7
:1004F000643C031DA22A893084003F08D6003E08D0
:10050000D5003D08D4003C08D3000230D70022219A
:100510002C300C1E892A99004608D3001F30D400C5
:10052000052A2C300C1E922A9900893084003B0841
:10053000D6003A08D5003908D4003808D300023074
:10054000D70022218C128A110A122B280608C70014
:1005500047081039103C031DB62A4608043C031D09
:10056000B42A0130C600B52AC60AC7010B108A1189
:100570000A122B28C40A8B108A110A122B288E30DB
:10058000F7005408F8005308F900FA01F808031DB1
:10059000D32A7908F800F9010830F702F808031D9A
:1005A000D32AF701DB2A0310F81BDA2AF90DF80D1C
:1005B000F703D32AF813003480308318D806DD01FE
:1005C000DE015408DC005808DC0653080319CC2B64
:1005D000DB00F70057080319D52BDB020319712B39
:1005E000031C2F2B5808E100E1175908E0005A08B6
:1005F000DF00DE010310E10CE00CDF0CDE0CDB0B96
:10060000F92ADC1F062B5D14E92B5D105B105D16CB
:10061000563084008313FE2B5D12DC1B192B5B1CF0
:10062000242BE10CE00CDF0CDE0CF70A0319E42BA1
:10063000242BE11B272B0310DE0DDF0DE00DE10D58
:10064000F7030319E42B192B5D17912B5D13540845
:10065000DC00DC1F2D2BE117DD2BE113DD2B570810
:10066000DB00F7005308DB025408E100E1175508EE
:10067000E0005608DF00DE010310E10CE00CDF0CA7
:10068000DE0CDB0B3B2BDC1F482BDD14E92BDD10D4
:100690005B10DD165A3084008313FE2BDD12DC1B49
:1006A0005B2B5B1C662BE10CE00CDF0CDE0CF70A0D
:1006B0000319E42B662BE11B692B0310DE0DDF0D04
:1006C000E00DE10DF7030319E42B5B2BDD17912BF4
:1006D000DD135808DC00DC1F6F2BE117DD2BE11365
:1006E000DD2B5808E100E1175908E0005A08DF0047
:1006F000DC1F7E2BE1135D15E92B5D11DE015B1024
:10070000563084008313FE2BDC1BA72B5408DC001F
:100710005B1C912BE10CE00CDF0CDE0CF70A0319DB
:10072000E42BDE1FA22BDF0A031DA22BE00A031D10
:10073000A22BE10A031DA22BE10CE00CDF0CF70A4F
:100740000319E42B5D1B262BDD1B682BC62B803089
:10075000E106E11FAF2BE92B5808DC00BC2B540845
:10076000DC00E108031DBC2BE008031DBC2BDF08E7
:10077000031DBC2BF701DD2BE11BC62B0310DE0D87
:10078000DF0DE00DE10DF70BBC2BE42BDC1FCA2BBA
:10079000E117DD2BE113DD2B5708F7005808E100C6
:1007A0005908E0005A08DF00DD2B5308F700540811
:1007B000E1005508E0005608DF006108F800600815
:1007C000F9005F08FA001C2CF701F801F901FA01A1
:1007D0001C2CDE01DF09E009E109DE09DE0A031D48
:1007E000F72BDF0A031DF72BE00A0319E10A5D1856
:1007F000052BDD18472B5D197D2BAC2B0008DF077F
:10080000031C082CE00A031D082CE10A03195B14E1
:1008100084030008E007031C102CE10A03195B1491
:1008200084030008801F803AE10703185B145D1AF7
:100830000C2BDD1A4E2B842B8A110A12562C0630F3
:100840008100C50A4508FA3C031D5F2CC501D4018F
:100850004408D300BF227A08E3007908E200780850
:10086000E1007708E0002930E7005C30E6000F3057
:10087000E5007E30E4004A207A08BF007908BE0017
:100880007808BD007708BC0083103B08D6003A0802
:10089000D5003908D4003808D3003F08DA003E08F4
:1008A000D9003D08D8003C08D700DC2A7A08BB00F4
:1008B0007908BA007808B9007708B800C4010B11AC
:1008C0008A110A122B2883161F1383121F179F17D2
:1008D00083169F1783121F1483161F109F101F115A
:1008E0009F1183128A110A125D2D0B168A110A12AA
:1008F000642D8B1683160108C039033881008312DA
:100900008A110A12652D4A308400831300080319E6
:10091000972C0130F800F701F70B8C2CF80B8B2C7F
:100920004A30F700F70B922C952C800B892C8A11FA
:100930000A12C82C8E30F7004A08F7024B08F9005B
:100940004C08F800F917F7080319B12C0310F9083F
:10095000031DAD2CF8080319B12CF90CF80CF70B9A
:10096000A62CCB1FB82CF809F909F80A0319F90AC3
:100970008A110A12EB2C490DF700F70DF70DF8302C
:10098000F7051F08C73977049F000330CA00832C7E
:100990001F151F19C92C1E08FA0083161E08831282
:1009A000A8018B1BA8178B13D3001E08D400BF22ED
:1009B000A81B8B177A08C3007908C2007808C10009
:1009C0007708C0004308CD004208CC004108CB00A6
:1009D0004008CA009A2C780800344A08D1004E0812
:1009E000D106D11FF82C03110310CA1B03142B2DA1
:1009F0004A08D1004D08D2004908D2020319062D39
:100A0000D11F2B2D0308013A83002B2D4E08D20055
:100A10004A08D2020319122DD11F2B2D0308013AC7
:100A200083002B2D4F08D2004B08D20203191E2D34
:100A3000D11F2B2D0308013A83002B2D5008D20023
:100A40004C08D20203192A2DD11F2B2D0308013A7D
:100A500083002B2D03100034840183131F30830582
:100A6000193083169900A6309800903083129800B0
:100A700083161F149F141F159F1107309C008312AB
:100A8000A901AA01FF30AF00B001B101B201B30169
:100A9000B401B501B601B701B801B901BA01BB0192
:100AA000BC01BD01BE01BF01C001C101C201C30142
:100AB000C401C501C601C701632C03178B1583163A
:100AC00003138C168312752C792CC0308B042F11D4
:100AD0002F0883168700831207110C30970000300F
:100AE000F80005389200F93083169200C83083125E
:100AF00095001708CF399700C901BB24A8018B1BAB
:100B0000A8178B13D4017808D300BF22A81B8B171A
:100B10007A08B3007908B2007808B1007708B0000D
:100B20000130C900BB24A8018B1BA8178B13D4016B
:100B30007808D300BF22A81B8B177A08B700790862
:100B4000B6007808B5007708B400CC01CB01483076
:100B5000CA008630C9003308D0003208CF003108FF
:100B6000CE003008CD00ED24031CD02DCC01CB01EC
:100B70004830CA008630C9003708D0003608CF0098
:100B80003508CE003408CD00ED24031CD02D83168B
:100B90008610831286108316061183120611252EE5
:100BA0003308CC003208CB003108CA003008C90035
:100BB000D001CF014830CE008630CD00ED24031C9B
:100BC000FB2DCC01CB014830CA008630C900370864
:100BD000D0003608CF003508CE003408CD00ED2413
:100BE000031CFB2D8316061183120615831686102F
:100BF00083128610252ECC01CB014830CA008630E6
:100C0000C9003308D0003208CF003108CE003008C8
:100C1000CD00ED24031C252E3708CC003608CB0070
:100C20003508CA003408C900D001CF014830CE00D1
:100C30008630CD00ED24031C252E831686108312EA
:0E0C4000861483160611831206117C2D6300A4
:02400E00313F40
:00000001FF
;PIC16F877A
